:100000000C942A000C9447000C9447000C94470071
:100010000C9447000C9447000C9447000C94470044
:100020000C9447000C9447000C9447000C94470034
:100030000C9447000C9447000C9447000C94470024
:100040000C9447000C9447000C9447000C94470014
:100050000C94470011241FBECFE5D8E0DEBFCDBF12
:1000600011E0A0E6B0E0EAE4F8E002C005900D92ED
:10007000AA35B107D9F721E0AAE5B1E001C01D9288
:10008000AA35B207E1F70E9452020C9423040C94A3
:100090000000662311F0C09A01C0C098C19882BBCD
:1000A0008FEF81BBC29A000000000000C298089543
:1000B000C098C19A11BA90B3C29A00000000000023
:1000C00011BA90B3C29899239CF30E9449000895F5
:1000D0009C0183E083BF83E808C082BF98B791602A
:1000E00098BFA89508B600FEFDCF21503109A8F7AA
:1000F00013BE08959C0182E083BF8EEC08C082BFCE
:1001000098B7916098BFA89508B600FEFDCF215022
:100110003109A8F713BE0895B89AB99ABA9A80E13E
:1001200090E00E94680060E080E30E94490085E062
:1001300090E00E94680060E080E30E94490081E056
:1001400090E00E94680060E08CE30E94580060E04C
:100150008CE00E94580060E086E00E94580060E059
:1001600081E00E945800089560E081E00E945800FC
:100170000895CF93C62F98E2899FC00D112460E0A7
:1001800082E00E945800CC2331F060E084E10E94BC
:100190005800C150D1F7CF910895CF93DF93EC0170
:1001A0002196FC018081882331F061E00E94580093
:1001B00089918111FACFDF91CF9108958F929F920B
:1001C000AF92BF92CF92DF92EF92FF920F931F9365
:1001D000CF93DF936B017C0149015A019B01AC0174
:1001E00060E070E080E89FE30E94BD0220E030E024
:1001F00040E05FE30E94B60320E030E44CE956E4BF
:100200000E94B6030E942F038B01A5019401C70130
:10021000B6010E94B6030E942F037B011616170633
:1002200074F4C0E0D0E0C39AC8010E947A00C39879
:10023000C8010E947A002196EC16FD06A1F7DF9115
:10024000CF911F910F91FF90EF90DF90CF90BF90D3
:10025000AF909F908F9008950F931F93CF93DF934C
:100260001616170624F58C01EC01660F771F060F92
:10027000171FE981F0E0EE0FFF1FEE0FFF1FE056A2
:10028000FF4F2081318142815381E881F0E0EE0F00
:10029000FF1FEE0FFF1FEC54FF4F608171818281C1
:1002A00093810E94DE002296C017D10711F7DF91DB
:1002B000CF911F910F910895CF93DF9320E030E00D
:1002C000A1E0B0E044B3FD01022E02C0EE0FFF1F1B
:1002D0000A94E2F79E2F9095942394BB2F5F3F4F93
:1002E0002830310579F744B321E030E0F90102C04C
:1002F000EE0FFF1F8A95E2F7CF01842B84BBA898ED
:10030000A998AA98AB98AC98AD98AE98AF9885B3D9
:10031000EB0124960C2E02C0220F331F0A94E2F741
:10032000282B25BB81E090E00E94680023B330E0D9
:1003300002C035952795CA95E2F781E090E020FF4D
:1003400002C080E090E0DF91CF9108950F931F935A
:10035000CF93DF9300E010E018C0BE01C8010E94F7
:100360005C01009749F0000F111F000F111FC00F13
:10037000D11FCE0101960CC02196C430D10569F77A
:100380000F5F1F4F0430110519F0C0E0D0E0E5CF3A
:10039000DF91CF911F910F910895EF92FF920F93EC
:1003A0001F93CF93DF93EC017B018A010E94A6018A
:1003B00081309105C1F584EF91E00E946800888149
:1003C000998181309105E9F4198218820E94B40064
:1003D00060E080E00E94B9008CE191E00E94CD00D5
:1003E00060E081E00E94B90085E291E00E94CD00CA
:1003F00081E090E0F70191838083F80111821082FF
:100400004AC0892B09F047C081E090E09983888336
:100410000E94B40060E080E00E94B90084E391E0B3
:100420000E94CD0038C00297B1F584EF91E00E94A0
:1004300068008881998181309105E9F419821882D8
:100440000E94B40060E080E00E94B9008CE191E07D
:100450000E94CD0060E081E00E94B9008BE391E052
:100460000E94CD00F7011182108281E090E0F80136
:100470009183808310C0892B71F481E090E099838F
:1004800088830E94B40060E080E00E94B90084E3A9
:1004900091E00E94CD00DF91CF911F910F91FF90CD
:1004A000EF900895CF93DF9300D000D000D0CDB768
:1004B000DEB781E08ABB88E087BB0E948C008BE4BA
:1004C00091E00E94CD0081E090E09A8389831C82B4
:1004D0001B821E821D820AC0AE014B5F5F4FBE01B0
:1004E0006D5F7F4FCE0101960E94CD0189819A8177
:1004F000892B91F78B819C81892BD9F0AE014B5FC1
:100500005F4FBE016D5F7F4FCE0101960E94CD010E
:1005100060E170E080E890E00E942C01AE014B5F4A
:100520005F4FBE016D5F7F4FCE0101960E94CD01EE
:100530001EC08D819E81892BD1F0AE014B5F5F4F34
:10054000BE016D5F7F4FCE0101960E94CD0160E13B
:1005500070E080E690E00E942C01AE014B5F5F4F9F
:10056000BE016D5F7F4FCE0101960E94CD01898152
:100570009A81892B09F4BECFB9CF0E94D1020C9485
:100580007C030E94750358F00E946E0340F029F42A
:100590005F3F29F00C94650351110C94B0030C9447
:1005A0006B030E948D0368F39923B1F3552391F3F4
:1005B000951B550BBB27AA2762177307840738F0D2
:1005C0009F5F5F4F220F331F441FAA1FA9F335D02F
:1005D0000E2E3AF0E0E832D091505040E695001CE3
:1005E000CAF72BD0FE2F29D0660F771F881FBB1F9D
:1005F000261737074807AB07B0E809F0BB0B802D7B
:10060000BF01FF2793585F4F3AF09E3F510578F0A6
:100610000C9465030C94B0035F3FE4F3983ED4F36D
:10062000869577956795B795F7959F5FC9F7880F7A
:10063000911D9695879597F90895E1E0660F771FCC
:10064000881FBB1F621773078407BA0720F0621B5D
:10065000730B840BBA0BEE1F88F7E09508950E9488
:1006600036036894B1110C94B00308950E94950369
:1006700088F09F5798F0B92F9927B751B0F0E1F063
:10068000660F771F881F991F1AF0BA95C9F714C013
:10069000B13091F00E94AF03B1E008950C94AF0324
:1006A000672F782F8827B85F39F0B93FCCF386954C
:1006B00077956795B395D9F73EF4909580957095A9
:1006C00061957F4F8F4F9F4F089597F99F6780E8FF
:1006D00070E060E008959FEF80EC089500240A9494
:1006E0001616170618060906089500240A9412160D
:1006F0001306140605060895092E0394000C11F440
:10070000882352F0BB0F40F4BF2B11F460FF04C0EC
:100710006F5F7F4F8F4F9F4F089557FD9058440F45
:10072000551F59F05F3F71F04795880F97FB991F50
:1007300061F09F3F79F0879508951216130614060D
:10074000551FF2CF4695F1DF08C01616170618069A
:10075000991FF1CF86957105610508940895E89475
:10076000BB2766277727CB0197F908950E94C90315
:100770000C947C030E946E0338F00E94750320F0F5
:10078000952311F00C9465030C946B0311240C94C5
:10079000B0030E948D0370F3959FC1F3950F50E055
:1007A000551F629FF001729FBB27F00DB11D639F23
:1007B000AA27F00DB11DAA1F649F6627B00DA11DC9
:1007C000661F829F2227B00DA11D621F739FB00D6F
:1007D000A11D621F839FA00D611D221F749F3327DF
:1007E000A00D611D231F849F600D211D822F762F78
:1007F0006A2F11249F5750409AF0F1F088234AF055
:10080000EE0FFF1FBB1F661F771F881F91505040C0
:10081000A9F79E3F510580F00C9465030C94B0033A
:100820005F3FE4F3983ED4F3869577956795B79547
:10083000F795E7959F5FC1F7FE2B880F911D969561
:0A084000879597F90895F894FFCF0B
:10084A0003010A010802070205020F010A01080250
:10085A00070205020F010A0108020702080205023F
:10086A000200050005010701070019040A0209022E
:10087A000A0209020A020902050105010701070025
:10088A000000803F0000003F0000803E0000003E64
:10089A000000803D0000DC437B14E943A4F0F643EA
:1008AA0000D00244AE970A441FD5124400901B445C
:1008BA0000D02444719D2E445CFF38445CFF4344BD
:1008CA000AA74F4400005C441F15694448F1764466
:1008DA0000D082445C978A441FD5924452909B442C
:1008EA0052D0A4441F9DAE445CFFB8445CFFC3448D
:1008FA000AA7CF440000DC4400002041706C6179F3
:10090A00696E672100536F6E673A2049726F6E20D5
:10091A004D616E0050617573656400536F6E673A7E
:10092A002053746172205761727300507265737339
:0A093A0020746F20706C61793A00A0
:00000001FF
